:04000000C5EF0FF049
:10060000003F065B4F666D7D077F6F777C395E79B3
:100610007154656D706F20446573656A61646F3AEB
:1006200020000A2E2E2E2E204D4D3A5353202E2ED2
:100630002E2E0042656D2056696E646F2861292058
:10064000202000312D4C697672652020322D4175B5
:10065000746F000A20566F6C7461723F20506F7483
:100660003D30000A566F6C7461723F202A2D536929
:030670006D00001A
:10067400C6EC0EF0E7EC0FF0E2EC0FF00150446E24
:10068400000E126E040E116E000E146E000E136E28
:100694000F0E3EEC0DF0800E3EEC0DF0110E096EC7
:1006A400060E0A6E7DEC0DF0220E096E060E0A6E21
:1006B4007DEC0DF0000E0A6E000E096E65EC0EF076
:1006C40069EF04F0B1EC09F044500F6E106AE2ECEB
:1006D4000FF00F50011809E110500218D8B475EF4B
:1006E40003F077EF03F069EF04F0E2EC0FF0015050
:1006F400446E13C009F014C00AF065EC0EF044A671
:1007040086EF03F088EF03F09DEF03F0D8901334E5
:10071400D96E1434DA6E2C0ED926000EDA22010EAC
:10072400DE6E000EDD6E310E1BEC0FF0134A142A40
:100734001106D8A0120644AEA2EF03F0A4EF03F012
:10074400B9EF03F0D8901334D96E1434DA6E2C0E4A
:10075400D926000EDA22020EDE6E000EDD6E320E97
:100764001BEC0FF0134A142A1106D8A0120644A455
:10077400BEEF03F0C0EF03F0D5EF03F0D8901334CD
:10078400D96E1434DA6E2C0ED926000EDA22040E39
:10079400DE6E000EDD6E340E1BEC0FF0134A142ACD
:1007A4001106D8A0120644ACDAEF03F0DCEF03F034
:1007B400F1EF03F0D8901334D96E1434DA6E2C0EA2
:1007C400D926000EDA22050EDE6E000EDD6E350E21
:1007D4001BEC0FF0134A142A1106D8A0120644A2E7
:1007E400F6EF03F0F8EF03F00DEF04F0D8901334B4
:1007F400D96E1434DA6E2C0ED926000EDA22070EC6
:10080400DE6E000EDD6E370E1BEC0FF0134A142A59
:100814001106D8A0120644AA12EF04F014EF04F053
:1008240029EF04F0D8901334D96E1434DA6E2C0EF8
:10083400D926000EDA22080EDE6E000EDD6E380EAA
:100844001BEC0FF0134A142A1106D8A0120644A870
:100854002EEF04F030EF04F045EF04F0D890133499
:10086400D96E1434DA6E2C0ED926000EDA22000E5C
:10087400DE6E000EDD6E300E1BEC0FF0134A142AF0
:100884001106D8A0120644A04AEF04F04CEF04F07D
:1008940069EF04F013501410D8B453EF04F055EF7B
:1008A40004F069EF04F01306D8A01406D8901334AA
:1008B400D96E1434DA6E2C0ED926000EDA22630EA9
:1008C400DE6E000EDD6E114A122A69EF04F011503B
:1008D4001210D8A470EF04F072EF04F064EF03F088
:1008E40079EF04F02E4A2F2A3006D8A0310631BE03
:1008F40087EF04F0315007E1060E305CD8B085EF85
:1009040004F087EF04F074EF04F08EEF04F02E0689
:10091400D8A02F062C4A2D2A2FBE9CEF04F02F506E
:1009240007E10A0E2E5CD8B09AEF04F09CEF04F0B5
:1009340089EF04F02DBEAAEF04F02D5007E10A0E52
:100944002C5CD8B0A8EF04F0AAEF04F0E3EF04F0B5
:100954002CC001F02DC002F0020E046E580E036E7E
:1009640085EC0FF001C00FF002C010F02EC001F0B2
:100974002FC002F0000E046E3C0E036E85EC0FF0E7
:1009840001500F260250102230C001F031C002F095
:10099400000E046E0A0E036E85EC0FF001500F2654
:1009A4000250102232500F26335010220FC034F060
:1009B40010C035F0000E35BEFF0E366E376EE9EF0F
:1009C40004F0000E2D6E090E2C6EAAEF04F00C0E2E
:1009D4003424386E000E3520396E000E36203A6EFF
:1009E400000E37203B6E120002BE04EF05F00250E9
:1009F40007E1080E015CD8B002EF05F004EF05F042
:100A04002EEF05F003500410D8B40BEF05F00DEFF2
:100A140005F01DEF05F001C005F0010E066E052A74
:100A240016EF05F0D8900636052E14EF05F00650A3
:100A340080121CEF06F001C005F0010E066E052AB7
:100A440026EF05F0D8900636052E24EF05F0065063
:100A5400FF0A80161CEF06F002BE3CEF05F00250C0
:100A640007E1100E015CD8B03AEF05F03CEF05F059
:100A74006AEF05F0F80E0126FF0E0222035004105F
:100A8400D8B447EF05F049EF05F059EF05F001C080
:100A940005F0010E066E052A52EF05F0D8900636D1
:100AA400052E50EF05F0065081121CEF06F001C030
:100AB40005F0010E066E052A62EF05F0D8900636A1
:100AC400052E60EF05F00650FF0A81161CEF06F0B4
:100AD40002BE78EF05F0025007E1180E015CD8B0B1
:100AE40076EF05F078EF05F0A6EF05F0F00E01269D
:100AF400FF0E022203500410D8B483EF05F085EFF3
:100B040005F095EF05F001C005F0010E066E052A0B
:100B14008EEF05F0D8900636052E8CEF05F00650C2
:100B240082121CEF06F001C005F0010E066E052AC4
:100B34009EEF05F0D8900636052E9CEF05F0065082
:100B4400FF0A82161CEF06F002BEB4EF05F0025055
:100B540007E1200E015CD8B0B2EF05F0B4EF05F068
:100B6400E2EF05F0E80E0126FF0E02220350041006
:100B7400D8B4BFEF05F0C1EF05F0D1EF05F001C027
:100B840005F0010E066E052ACAEF05F0D890063668
:100B9400052EC8EF05F0065083121CEF06F001C0C5
:100BA40005F0010E066E052ADAEF05F0D890063638
:100BB400052ED8EF05F00650FF0A83161CEF06F049
:100BC40002BEF0EF05F0025007E1280E015CD8B038
:100BD400EEEF05F0F0EF05F01CEF06F0E00E012655
:100BE400FF0E022203500410D8B4FBEF05F0FDEF12
:100BF40005F00DEF06F001C005F0010E066E052AA2
:100C040006EF06F0D8900636052E04EF06F00650DF
:100C140084121CEF06F001C005F0010E066E052AD1
:100C240016EF06F0D8900636052E14EF06F006509F
:100C3400FF0A8416120002BE2BEF06F0025007E1F1
:100C4400080E015CD8B029EF06F02BEF06F055EF43
:100C540006F003500410D8B432EF06F034EF06F077
:100C640044EF06F001C005F0010E066E052A3DEFC3
:100C740006F0D8900636052E3BEF06F00650921289
:100C840043EF07F001C005F0010E066E052A4DEF93
:100C940006F0D8900636052E4BEF06F00650FF0AF4
:100CA400921643EF07F002BE63EF06F0025007E12D
:100CB400100E015CD8B061EF06F063EF06F091EF1F
:100CC40006F003500410D8B46AEF06F06CEF06F097
:100CD4007EEF06F001C005F0F80E0526010E066E43
:100CE400052A77EF06F0D8900636052E75EF06F044
:100CF4000650931243EF07F001C005F0F80E0526E5
:100D0400010E066E052A89EF06F0D8900636052EE8
:100D140087EF06F00650FF0A931643EF07F002BE72
:100D24009FEF06F0025007E1180E015CD8B09DEF6A
:100D340006F09FEF06F0CDEF06F003500410D8B490
:100D4400A6EF06F0A8EF06F0BAEF06F001C005F032
:100D5400F00E0526010E066E052AB3EF06F0D890B4
:100D64000636052EB1EF06F00650941243EF07F055
:100D740001C005F0F00E0526010E066E052AC5EF2A
:100D840006F0D8900636052EC3EF06F00650FF0A8B
:100D9400941643EF07F002BEDBEF06F0025007E1C2
:100DA400200E015CD8B0D9EF06F0DBEF06F009EFB6
:100DB40007F003500410D8B4E2EF06F0E4EF06F0B5
:100DC400F6EF06F001C005F0E80E0526010E066EEA
:100DD400052AEFEF06F0D8900636052EEDEF06F063
:100DE4000650951243EF07F001C005F0E80E052602
:100DF400010E066E052A01EF07F0D8900636052E7F
:100E0400FFEF06F00650FF0A951643EF07F002BE07
:100E140017EF07F0025007E1280E015CD8B015EF78
:100E240007F017EF07F043EF07F003500410D8B4AE
:100E34001EEF07F020EF07F032EF07F001C005F0D6
:100E4400E00E0526010E066E052A2BEF07F0D8905A
:100E54000636052E29EF07F00650961243EF07F0E9
:100E640001C005F0E00E0526010E066E052A3DEFD1
:100E740007F0D8900636052E3BEF07F00650FF0A20
:100E8400961612006DEC0FF0D0EC0FF0000E226EEF
:100E9400010E216E3AEC03F0070E106ED00E0F6EA9
:100EA40098EC0FF0320E2FEC0EF021EF08F034C066
:100EB40019F035C01AF036C01BF037C01CF030EC06
:100EC40008F03406000E355A365A375A800E3EEC76
:100ED4000DF0000E026E000E016E45EC0FF001C025
:100EE40027F002C028F027C001F028C002F0000E4D
:100EF400046E0A0E036E9AEC0BF001502FEC0EF008
:100F0400000E246E000E236E200E1BEC0FF0234AFD
:100F1400242A24BE97EF07F0245009E1050E235C30
:100F2400D8A097EF07F099EF07F086EF07F0500E7F
:100F34001BEC0FF06F0E1BEC0FF0740E1BEC0FF09C
:100F44003D0E1BEC0FF0000E046E640E036E27C002
:100F540001F028C002F09AEC0BF001C009F002C0C5
:100F64000AF0000E0C6E0A0E0B6EFCEC0BF009502E
:100F7400300F1BEC0FF0000E046E0A0E036E27C038
:100F840001F028C002F09AEC0BF001C009F002C095
:100F94000AF0000E0C6E0A0E0B6EFCEC0BF00950FE
:100FA400300F1BEC0FF027C009F028C00AF0000E28
:100FB4000C6E0A0E0B6EFCEC0BF00950300F1BECA0
:100FC4000FF0000E266E000E256E200E1BEC0FF0A7
:100FD400254A262A26BEF8EF07F0265009E1040E1A
:100FE400255CD8A0F8EF07F0FAEF07F0E7EF07F079
:100FF400530E096E060E0A6E7DEC0DF0345035105A
:1010040036103710D8A409EF08F00BEF08F00FEFF3
:1010140008F0000E226E000E216E28BE1DEF08F0AF
:10102400285007E10A0E275CD8B01BEF08F01DEF2B
:1010340008F021EF08F0000E226E000E216E215000
:101044002210D8A428EF08F02AEF08F059EF07F08F
:10105400000E2FEC0EF054EC0CF012003806000ECB
:10106400395A3A5A3B5A030E176E19C00EF01AC079
:101074000FF01BC010F01CC011F00A0E126E000E0F
:10108400136E000E146E000E156EFAEC0CF00E507A
:101094009AEC0EF0020E176E0A0E056E000E066E26
:1010A400000E076E000E086E19C001F01AC002F09F
:1010B4001BC003F01CC004F0A8EC0CF001C00EF03F
:1010C40002C00FF003C010F004C011F0060E126E3F
:1010D400000E136E000E146E000E156EFAEC0CF07A
:1010E4000E509AEC0EF0010E176E3C0E056E000EBB
:1010F400066E000E076E000E086E19C001F01AC0CD
:1011040002F01BC003F01CC004F0A8EC0CF001C0FA
:101114000EF002C00FF003C010F004C011F00A0E6C
:10112400126E000E136E000E146E000E156EFAECA5
:101134000CF00E509AEC0EF0000E176E580E056E61
:10114400020E066E000E076E000E086E19C001F046
:101154001AC002F01BC003F01CC004F0A8EC0CF091
:1011640001C00EF002C00FF003C010F004C011F073
:101174000A0E126E000E136E000E146E000E156E23
:10118400FAEC0CF00E509AEC0EF0000E1E6E000EEF
:101194001D6E6EEC0AF0000E206E000E1F6E1F4ACC
:1011A400202A20BEDFEF08F0200E1F5C030E20581B
:1011B400D8A0DFEF08F0E1EF08F0D1EF08F01D4A06
:1011C4001E2A1EBEEFEF08F01E5009E1780E1D5CCA
:1011D400D8A0EFEF08F0F1EF08F0CBEF08F0120021
:1011E4006DEC0FF0D0EC0FF0E7EC0FF0070E106E83
:1011F400D00E0F6E98EC0FF0320E2FEC0EF0000EA6
:10120400146E010E136EA5EF09F0800E3EEC0DF086
:10121400000E026E000E016E45EC0FF001C015F0D9
:1012240002C016F015C001F016C002F0000E046EE4
:101234000A0E036E9AEC0BF001502FEC0EF0200E08
:101244001BEC0FF0200E1BEC0FF0200E1BEC0FF02C
:10125400200E1BEC0FF0200E1BEC0FF0500E1BECBD
:101264000FF06F0E1BEC0FF0740E1BEC0FF03D0E25
:101274001BEC0FF0000E046E640E036E15C001F03B
:1012840016C002F09AEC0BF001C009F002C00AF09B
:10129400000E0C6E0A0E0B6EFCEC0BF00950300FB6
:1012A4001BEC0FF0000E046E0A0E036E15C001F065
:1012B40016C002F09AEC0BF001C009F002C00AF06B
:1012C400000E0C6E0A0E0B6EFCEC0BF00950300F86
:1012D4001BEC0FF015C009F016C00AF0000E0C6EDE
:1012E4000A0E0B6EFCEC0BF00950300F1BEC0FF0E8
:1012F400630E096E060E0A6E7DEC0DF0B1EC09F07A
:101304004450116E126AE2EC0FF01150011809E119
:1013140012500218D8B491EF09F093EF09F0A5EF39
:1013240009F0E2EC0FF00150446E44A09CEF09F088
:101334009EEF09F0A5EF09F0000E2FEC0EF0000E61
:10134400146E000E136E13501410D8A4ACEF09F0F1
:10135400AEEF09F007EF09F054EC0CF0120083CF64
:1013640006F00F0E9512000E0A6EF80E93160AC0C0
:1013740001F0010E026E012AC2EF09F0D890023684
:10138400012EC0EF09F002509312070E81120AC019
:1013940001F0010E026E012AD2EF09F0D890023654
:1013A400012ED0EF09F00250FF0A8116000E086EDC
:1013B400000E076E074A082A08BEEAEF09F0085033
:1013C40009E10A0E075CD8A0EAEF09F0ECEF09F096
:1013D400DCEF09F0000E096E09C001F0010E026E87
:1013E400012AF7EF09F0D8900236012EF5EF09F043
:1013F400025083140009D8A402EF0AF004EF0AF0A3
:101404001CEF0AF00A50040DF3500924016E010E7A
:10141400026E000E036E012A13EF0AF0D890023612
:101424000336012E10EF0AF002504012035041120D
:1014340036EF0AF00A50040DF3500924016E010E30
:10144400026E000E036E012A2BEF0AF0D8900236CA
:101454000336012E28EF0AF0021C046E031C056EED
:101464000450401605504116092A030E09643DEF45
:101474000AF03FEF0AF0EEEF09F00A2A020E0A64BE
:1014840046EF0AF048EF0AF0B7EF09F040503E1873
:1014940007E141503F18D8A452EF0AF054EF0AF084
:1014A40057EF0AF04C065DEF0AF00A0E4C6E40C08E
:1014B4003EF041C03FF04C50D8A463EF0AF065EF12
:1014C4000AF069EF0AF03EC042F03FC043F006C0A4
:1014D40083FF000E956E1200000E026E020E016E66
:1014E400000E046E000E036EF6EC04F0000E026EA5
:1014F400030E016E000E046E000E036EF6EC04F093
:10150400000E026E040E016E000E046E000E036ED9
:10151400F6EC04F0000E026E050E016E000E046E71
:10152400000E036EF6EC04F0000E836EF6EF0AF084
:10153400010E4824F66EF76A060EF7220800F5CF6E
:1015440083FF000E026E020E016E000E046E010E89
:10155400036EF6EC04F0010E496E13EF0BF0010E6E
:101564004724F66EF76A060EF7220800F5CF83FFCC
:10157400000E026E030E016E000E046E010E036E69
:10158400F6EC04F0020E496E13EF0BF0010E462444
:10159400F66EF76A060EF7220800F5CF83FF000EF9
:1015A400026E040E016E000E046E010E036EF6EC64
:1015B40004F0030E496E13EF0BF0010E4524F66E92
:1015C400F76A060EF7220800F5CF83FF000E026EBD
:1015D400050E016E000E046E010E036EF6EC04F0AF
:1015E400000E496E13EF0BF04950076E086A08505D
:1015F400000AD8B400EF0BF0F2EF0AF00750000A2B
:10160400D8B49AEF0AF0010AD8B4B1EF0AF0030A89
:10161400D8B4C8EF0AF0010AD8B4DFEF0AF0F2EF49
:101624000AF01200000E0A6E08BE1DEF0BF01BEF4D
:101634000BF027EF0BF0081E071E061E056C000EAC
:10164400062207220822010E0A6E04BE2EEF0BF0BA
:101654002CEF0BF038EF0BF0041E031E021E016C7E
:10166400000E022203220422010E0A1A000E0B6E3F
:10167400000E0C6E000E0D6E000E0E6E0550061060
:1016840007100810D8B449EF0BF04BEF0BF081EFC3
:101694000BF0010E096E55EF0BF0D89005360636A7
:1016A40007360836092A08AE5AEF0BF05CEF0BF048
:1016B4004FEF0BF0D8900B360C360D360E36055026
:1016C400015C065002580750035808500458D8A02B
:1016D4006EEF0BF070EF0BF079EF0BF00550015E3D
:1016E4000650025A0750035A0850045A0B80D890E7
:1016F4000832073206320532092E5CEF0BF00A502D
:10170400D8B487EF0BF089EF0BF091EF0BF00E1EBE
:101714000D1E0C1E0B6C000E0C220D220E220BC093
:1017240001F00CC002F00DC003F00EC004F0120072
:10173400000E066E04BEA3EF0BF0A1EF0BF0A9EFB1
:101744000BF0036C041ED8B0042A010E066E02BE10
:10175400B0EF0BF0AEEF0BF0B6EF0BF0016C021E26
:10176400D8B0022A010E061A000E086E000E076E8B
:1017740003500410D8B4C1EF0BF0C3EF0BF0EBEF40
:101784000BF0010E056ECBEF0BF0D8900336043648
:10179400052A04AED0EF0BF0D2EF0BF0C7EF0BF03D
:1017A400D890073608360350015C04500258D8A07C
:1017B400DEEF0BF0E0EF0BF0E5EF0BF00350015E12
:1017C4000450025A0780D89004320332052ED2EF17
:1017D4000BF00650D8B4F1EF0BF0F3EF0BF0F7EF8A
:1017E4000BF0076C081ED8B0082A07C001F008C027
:1017F40002F01200000E0E6E0ABE05EF0CF003EFAD
:101804000CF00BEF0CF0096C0A1ED8B00A2A010E7A
:101814000E6E0CBE12EF0CF010EF0CF016EF0CF085
:101824000B6C0C1ED8B00C2A0B500C10D8B41DEF46
:101834000CF01FEF0CF043EF0CF0010E0D6E27EFD0
:101844000CF0D8900B360C360D2A0CAE2CEF0CF0A5
:101854002EEF0CF023EF0CF00B50095C0C500A58DF
:10186400D8A037EF0CF039EF0CF03DEF0CF00B5033
:10187400095E0C500A5AD8900C320B320D2E2EEF02
:101884000CF00E50D8B449EF0CF04BEF0CF04FEFC6
:101894000CF0096C0A1ED8B00A2A09C009F00AC063
:1018A4000AF012000F0E836EB9EC0DF0D0EC0FF0BD
:1018B400C6EC0EF0E7EC0FF0010E3EEC0DF0800EDE
:1018C4003EEC0DF0000E106E000E0F6E2E0E1BEC93
:1018D4000FF00F4A102A10BE79EF0CF0105009E1F6
:1018E400100E0F5CD8A079EF0CF07BEF0CF068EFD2
:1018F4000CF0C00E3EEC0DF0000E106E000E0F6EDC
:101904002E0E1BEC0FF00F4A102A10BE93EF0CF0B2
:10191400105009E1100E0F5CD8A093EF0CF095EF76
:101924000CF082EF0CF0800E3EEC0DF0330E096EDD
:10193400060E0A6E7DEC0DF0C00E3EEC0DF0430E6B
:10194400096E060E0A6E7DEC0DF01200000E096E93
:10195400000E0A6E000E0B6E000E0C6E0550061083
:1019640007100810D8B4B9EF0CF0BBEF0CF0F1EF8E
:101974000CF0010E0D6EC5EF0CF0D890053606364E
:10198400073608360D2A08AECAEF0CF0CCEF0CF07F
:10199400BFEF0CF0D89009360A360B360C360550DA
:1019A400015C065002580750035808500458D8A048
:1019B400DEEF0CF0E0EF0CF0E9EF0CF00550015E07
:1019C4000650025A0750035A0850045A0980D89006
:1019D40008320732063205320D2ECCEF0CF009C066
:1019E40001F00AC002F00BC003F00CC004F01200B6
:1019F4001250131014101510D8B403EF0DF005EFA6
:101A04000DF035EF0DF0010E166E0FEF0DF0D890BE
:101A14001236133614361536162A15AE14EF0DF099
:101A240016EF0DF009EF0DF012500E5C13500F5825
:101A34001450105815501158D8A023EF0DF025EF6D
:101A44000DF02DEF0DF012500E5E13500F5A14507E
:101A5400105A1550115AD8901532143213321232CA
:101A6400162E16EF0DF00EC00EF00FC00FF010C0C2
:101A740010F011C011F01200086E83CF07F0000EB1
:101A8400956E000E026E220E016E000E046E000EA4
:101A9400036EF6EC04F008C083FF000E026E210E04
:101AA400016E000E046E010E036EF6EC04F0000EDF
:101AB400026E210E016E000E046E000E036EF6EC33
:101AC40004F007C083FF020E0818D8B46CEF0DF0C1
:101AD4006EEF0DF076EF0DF00804D8A474EF0DF05E
:101AE40076EF0DF07AEF0DF0ABEC0FF07CEF0DF02C
:101AF400B9EC0FF01200000E0E6E000E0D6E0D50BC
:101B040009240B6E0E500A200C6E0BC0F6FF0CC09D
:101B1400F7FF0800F5500A0AD8A493EF0DF095EFEB
:101B24000DF09AEF0DF0C00E3EEC0DF0A8EF0DF0A5
:101B34000D5009240B6E0E500A200C6E0BC0F6FFDC
:101B44000CC0F7FF0800F5501BEC0FF00D4A0E2AED
:101B54000EBEB6EF0DF00E5009E1100E0D5CD8A0CC
:101B6400B6EF0DF0B8EF0DF081EF0DF01200000E9E
:101B7400026E220E016E000E046E000E036E1DEC4A
:101B840006F0000E026E210E016E000E046E000EB1
:101B9400036E1DEC06F0000E956EABEC0FF0ABEC93
:101BA4000FF0ABEC0FF0ABEC0FF0ABEC0FF0380E2A
:101BB4003EEC0DF0ABEC0FF0ABEC0FF0380E3EEC5E
:101BC4000DF0ABEC0FF0380E3EEC0DF0380E3EECA1
:101BD4000DF0060E3EEC0DF00C0E3EEC0DF0010E79
:101BE4003EEC0DF01200000E066E000E056E035062
:101BF4000410D8B400EF0EF002EF0EF02AEF0EF04E
:101C0400010E076E0AEF0EF0D89003360436072A49
:101C140004AE0FEF0EF011EF0EF006EF0EF0D890B9
:101C2400053606360350015C04500258D8A01DEF57
:101C34000EF01FEF0EF024EF0EF00350015E04507F
:101C4400025A0580D89004320332072E11EF0EF0A9
:101C540005C001F006C002F012000A6E010ECB248A
:101C6400016E026A000E02220AC003F0046A85ECC7
:101C74000FF001C00BF002C00CF00BC001F00CC05F
:101C840002F0000E046E190E036EF5EC0DF001C0A7
:101C94000BF002C00CF0FF0E0B16030E0C160BC05B
:101CA40008F00CC009F0D89009320832D8900932F3
:101CB40008320850BE6E0BC008F0030E0816083830
:101CC400F00BBD1212007BEF0EF0C50E3EEC0DF0D2
:101CD40099EF0EF0C60E3EEC0DF099EF0EF0C80E23
:101CE4003EEC0DF099EF0EF0C90E3EEC0DF099EFBD
:101CF4000EF009C00BF00AC00CF00C50000AD8B466
:101D040086EF0EF099EF0EF00B50000AD8B467EF8F
:101D14000EF0010AD8B46CEF0EF0030AD8B471EFD8
:101D24000EF0010AD8B476EF0EF099EF0EF012001F
:101D3400186E1750D8A4A1EF0EF0A3EF0EF0A5EF84
:101D44000EF018C048F01704D8A4ABEF0EF0ADEFB6
:101D54000EF0AFEF0EF018C047F0020E1718D8A41B
:101D6400B6EF0EF0B8EF0EF0BAEF0EF018C046F072
:101D7400030E1718D8A4C1EF0EF0C3EF0EF0C5EF91
:101D84000EF018C045F01200000E026E020E016E35
:101D9400000E046E000E036E1DEC06F0000E026EC3
:101DA400030E016E000E046E000E036E1DEC06F0B1
:101DB400000E026E040E016E000E046E000E036E21
:101DC4001DEC06F0000E026E050E016E000E046E90
:101DD400000E036E1DEC06F0000E956E1200B1ECC1
:101DE40009F02B50296E2A6AE2EC0FF029500118F1
:101DF40009E12A500218D8B402EF0FF004EF0FF0F3
:101E04001AEF0FF0E2EC0FF001502B6E2BA60DEF42
:101E14000FF00FEF0FF011EF0FF0F2EC08F02BAE14
:101E240016EF0FF018EF0FF01AEF0FF044EC07F075
:101E34001200076E83CF08F0000E956E000E026E3E
:101E4400220E016E000E046E010E036EF6EC04F019
:101E540007C083FF000E026E210E016E000E046E99
:101E6400010E036EF6EC04F0000E026E210E016EFC
:101E7400000E046E000E036EF6EC04F008C083FF3F
:101E8400B9EC0FF01200C30EC216025007E1030EA4
:101E9400015CD8B050EF0FF052EF0FF056EF0FF097
:101EA4000144E846FC0BC212C282C2B25CEF0FF0DE
:101EB4005EEF0FF057EF0FF0C4CF03F0046A035046
:101EC400046E036AC3500326000E042203C001F00B
:101ED40004C002F01200000E026E000E016E000E2D
:101EE400046E010E036E1DEC06F0000E026E010E70
:101EF400016E000E046E010E036E1DEC06F0C2802E
:101F0400AA0EC06E120001500302F3CF05F0F4CF05
:101F140006F001500402F350062602500302F35067
:101F2400062605C001F006C002F01200480E016E3C
:101F3400E80E026E010E036E000E046E0FC005F073
:101F440010C006F0076A086A14EC0BF00104CB6EAB
:101F54001200000E026EB9EC0FF0022A310E026478
:101F6400B6EF0FF0B8EF0FF0ADEF0FF01200000E68
:101F7400016E012A180E0164C2EF0FF0C4EF0FF0D6
:101F8400BBEF0FF0120000EE2CF0210EEE6AE80613
:101F9400FDE1000EF86E0001DAEF0FF094929494D4
:101FA400030ECA12CA840C0EBD120C0EBA12120011
:101FB40054EC0CF0F1EC0EF0DCEF0FF000EF00F05D
:101FC40042C001F043C002F01200070E93160F0E38
:041FD4009512120050
:020000040020DA
:08000000FFFFFFFFFFFFFFFF00
:020000040030CA
:0E000000FF027100FF8380FF0FC00FE00F4072
:00000001FF
